:100000000C94EB050C9413060C9413060C94131823
:100010000C9440180C946D180C9413060C94130651
:100020000C9413060C9413060C9413060C941306EC
:100030000C9413060C9413060C9413060C941306DC
:100040000C94172E0C9413060C94792A0C94FC2A09
:100050000C9413060C9413060C9413060C941306BC
:100060000C940E140C941306084AD73B3BCE016E39
:1000700084BCBFFDC12F3D6C74319ABD56833DDAFF
:100080003D00C77F11BED9E4BB4C3E916BAAAABE0E
:10009000000000803F4649464F206F766572666CCF
:1000A0006F7721002900444D5020496E69746961C1
:1000B0006C697A6174696F6E206661696C65642031
:1000C00028636F64652000444D5020726561647937
:1000D000212057616974696E6720666F72206669B6
:1000E00072737420696E746572727570742E2E2E20
:1000F00000456E61626C696E6720696E746572722C
:1001000075707420646574656374696F6E2028412E
:10011000726475696E6F2065787465726E616C20AB
:10012000696E746572727570742030292E2E2E00DF
:10013000456E61626C696E6720444D502E2E2E0014
:10014000496E697469616C697A696E6720444D50C3
:100150002E2E2E004D50553630353020636F6E6E8A
:10016000656374696F6E206661696C6564004D50EB
:10017000553630353020636F6E6E656374696F6E0F
:10018000207375636365737366756C00546573746F
:10019000696E672064657669636520636F6E6E655E
:1001A0006374696F6E732E2E2E00496E69746961D7
:1001B0006C697A696E6720493243206465766963A9
:1001C00065732E2E2E00FB00003E000B0036000152
:1001D00000020003000000650054FFEF0000FA80F9
:1001E000000B12820001000200000000000000006D
:1001F00000000000000000280000FFFF4581FFFF15
:10020000FA7200000000000003E800000001000195
:100210007FFFFFFE8001001B0000000000000000C7
:10022000000000000000003E03304000000002CA51
:10023000E3093E80000020000000000000004000B4
:1002400000006000000041FF000000000B2A0000D9
:10025000165500002182FD872650FD800000001FFA
:100260000000000580000000000000010000000206
:10027000000000030000400000000000046F0002C6
:10028000653200005EC04000000000000000000079
:10029000000000000000FB8C6F5DFD5D08D9007C54
:1002A000733B006C12CC3200139D3200D0D632006A
:1002B0000800400001F4FFE6807902000000000021
:1002C000D0D600002710FB00000040000000000016
:1002D000000000000000000000010000000000001D
:1002E0000100010000000000FA36FFBC308E00055E
:1002F000FBF0FFD95BC8FFD09ABE000010A9FFF445
:100300001EB200CEBBF70000000100000004000296
:1003100000020200000CFFC280000001800000CF3C
:10032000800040000000000000010000000000000C
:1003300006000000001400000000000000000000A3
:1003400000000000000000000000000000000000AD
:10035000000000000000000000000000000000009D
:1003600000000000000000000000033F68B679357F
:1003700028BCC67ED16C8000000040000000000058
:10038000B26A000000000000000000000000000051
:100390003FF00000003000000000000000000000FE
:1003A000000000000000000000000000000000004D
:1003B0000000000000000000254D002F706D0000BF
:1003C00005AE000C02D00000000000650054FFEFF5
:1003D00000000000000000000100004400000000D8
:1003E0000C00000001000000000000650000005447
:1003F0000000FFEF0000000000000000000000000F
:1004000000000000000040000000000000000000AC
:10041000000000000000400000000000000000009C
:1004200000000000000000000001000000020000C9
:1004300000000000000000000000000000000000BC
:1004400000000000000000000000000000000000AC
:10045000000000000000001B000000000000000081
:10046000000000000000000000000000000000008C
:10047000000000000000000000000000000000007C
:10048000000040000000001B000000000000000011
:10049000000000000000000000000000000000005C
:1004A000000000000000000000000000000000004C
:1004B000000000000000000000000000000000003C
:1004C000000000000000D8DCBAA2F1DEB2B8B4A887
:1004D0008191F74A907F916AF3F9DBA8F9B0BAA04D
:1004E00080F2CE81F3C2F1C1F2C3F3CCA2B280F1AB
:1004F000C6D880BAA7DFDFDFF2A7C3CBC5B6F087C7
:10050000A2942448703C95406834589B78A2F183AB
:10051000922D557DD8B1B4B8A1D09180F270F3700E
:10052000F27C80A8F101B09887D943D886C988BAEF
:10053000A1F20EB89780F1A9DFDFDFAADFDFDFF2DB
:10054000AAC5CDC7A90CC92C97979797F1A9892659
:100550004666B0B4BA80ACDEF2CAF1B28C02A9B67B
:100560009800890E161EB8A9B4992C547CB08AA89C
:1005700096365676F1B9AFB4B083C0B8A89711B12A
:100580008F98B9AFF0240844106418F1A329557D61
:10059000AF83B593AFF0002850F1A3869F61A6DA30
:1005A000DEDFD9FAA38696DB31A6D9F8DFBAA68FAB
:1005B000C2C5C7B28CC1B8A2DFDFDFA3DFDFDFD8DF
:1005C000D8F1B8A8B286B4980D355DB8AA98B087AE
:1005D0002D353DB2B6BAAF8C96198F9FA70E161E59
:1005E000B49AB8AA872C547CB9A3DEDFDFA3B1800C
:1005F000F2C4CDC9F1B8A9B499830D355D89B9A309
:100600002D557DB593A30E161EA92C547CB8B4B0FD
:10061000F19783A81184A50998A383F0DA240844EC
:10062000106418D8F1A529557DA58595021A2E3A92
:10063000565A4048F9F3A3D9F8F098832408441097
:1006400064189782A8F111F098A224084410641845
:10065000DAF3DED883A59401D9A302F1A2C3C5C7FA
:10066000D8F18492A24DDA2AD84869D92AD8685597
:10067000DA32D85071D932D8705DDA3AD85879D98F
:100680003AD87893A34DDA2AD84869D92AD8685538
:10069000DA32D85071D932D8705DDA3AD85879D96F
:1006A0003AD878A88A9AF02850789EF38818F19F53
:1006B0001D98A8D908D8C89F129EF315A8DA121061
:1006C000D8F1AFC8978734B5B994A421F3D922D80B
:1006D000F22DF3D92AD8F235F3D932D881A460604B
:1006E00061D961D86C6869D969D8747071D971D8C9
:1006F000B1A384193D5DA3831A3E5E93103081102F
:1007000011B8B0AF8F94F2DA3ED8B49AA88729DA3C
:10071000F8D8879A35DAF8D8879A3DDAF8D8B1B997
:10072000A49885022E56A581000C14A397B08AF1D7
:100730002DD928D84DD948D86DD968D8B1840DDACB
:100740000ED8A32983DA2C0ED8A3844983DA2C4C43
:100750000ED8B8B0A88A9AF520AADADFD8A840AA9D
:10076000D0DADED8A860AADAD0DFD8F19786A8312F
:100770009B069907AB9728889BF00C201440B8B0D3
:10078000B4A88C9CF0042851791D301438B282AB87
:10079000D0982C505078789BF11AB0F08A9CA829F8
:1007A00051798B2951798A2470598B2058718A4448
:1007B00069388B3940688A6448318B304960A58834
:1007C000200971584468113964493019F1AC002C82
:1007D000547CF08CA804285078F1889726A8599862
:1007E000AC8C02264666F0899CA829517924705960
:1007F000446938644831A98809205970AB113840E0
:1008000069A8193148608CA83C415C207C00F187C4
:10081000981986A86E767EA999882D557D9EB9A3D4
:100820008A228A6E8A568A5E9FB183062646660EA3
:100830002E4E6E9DB8AD002C547CF2B18CB499B99B
:10084000A32D557D8191AC38AD3AB58391AC2DD9AE
:1008500028D84DD948D86DD968D88C9DAE29D904EF
:10086000AED851D904AED879D904D881F39DAD0062
:100870008DAE1981ADD901D8F2AEDA26D88E912984
:1008800083A7D9ADADADADF32AD8D8F1B0AC89917D
:100890003E5E76F3AC2E2EF1B18C5A9CAC2C2828FF
:1008A000289CAC3018A8988128343C9724A7283479
:1008B0003C9C24F2B089AC912C4C6C8A9B2DD9D8ED
:1008C000D851D9D8D879D9D8D8F19E88A331DAD8D7
:1008D000D8912DD928D84DD948D86DD968D8B183A9
:1008E00093353D8025DAD8D88569DAD8D8B4938194
:1008F000A328343CF3AB8BF8A391B609B4D9ABDE93
:10090000FAB0879CB9A3DDF1A3A3A3A395F1A3A398
:10091000A39DF1A3A3A3A3F2A3B49080F2A3A3A3E6
:10092000A3A3A3A3A3A3A3B2A3A3A3A3A3A3B08797
:10093000B599F1A3A3A398F1A3A3A3A397A3A3A3FA
:10094000A3F39BA3A3DCB9A7F1262626D8D8FF03DF
:100950007B034CCD6C03AB0336567600680402CBA8
:1009600047A202180400058BC1010C04000000001E
:10097000037F060CC92C97979703890326466600C8
:100980006C02200002400400000000024404000049
:10099000000002480400000000024C0400000000B7
:1009A000025004000000000254040000000002583D
:1009B0000400000000025C040000000002BC04000F
:1009C00000000001EC0400004000037F060CC92C6D
:1009D0009797970402030D355D040904872D353D73
:1009E00000A3010000000001078601FE074105F198
:1009F00020283038077E01300746019A074704F166
:100A0000283038076C04F128303802160200010142
:100A1000B202FFFF0190040923A135016A0206001A
:100A200001600800000000000000000060044000B9
:100A300000000162020000006004004000000000AD
:100A40000000240027002A000000000025002800E4
:100A50002B000000000023002600290004040404E9
:100A60000404040402020202020203030303030358
:100A70000102040810204080010204081020010235
:100A80000408102000000007000201000003040613
:100A90000000000000000000494E46494E495459EC
:100AA0004E414ECDCCCC3D0AD7233C17B7D1387739
:100AB000CC2B329595E6241FB14F0A00002041004F
:100AC00000C84200401C4620BCBE4CCA1B0E5AAE99
:100AD000C59D7400407A10F35A00A0724E180900A8
:100AE00010A5D4E80000E87648170000E40B540293
:100AF0000000CA9A3B000000E1F5050000809698CE
:100B000000000040420F000000A08601000000101D
:100B10002700000000E8030000000064000000005F
:100B2000000A00000000000100000000002C76D840
:100B300088DC674F0823DFC1DFAE59E1B1B796E526
:100B4000E3E453C63AE651997696E8E6C28426EB8A
:100B5000898C9B62ED407C6FFCEFBC9C9F40F2BA9D
:100B6000A56FA5F490055A2AF75C936B6CF9676D35
:100B7000C11BFCE0E40D47FEF520E6B500D0ED908A
:100B80002E0300943577050080841E080000204E57
:100B90000A000000C80C333333330F986E128311F0
:100BA00041EF8D2114893BE65516CFFEE6DB18D1C7
:100BB000844B381BF77C1D901DA4BBE42420328499
:100BC000725E228100C9F124ECA1E53D27007F0B74
:100BD000F7159A18AF2A11241FBECFEFD8E0DEBF59
:100BE000CDBF11E0A0E0B1E0E4E4F8E602C005907A
:100BF0000D92A837B107D9F714E0A8E7B1E001C01A
:100C00001D92A338B107E1F71BE0C6EDDBE004C09D
:100C10002297FE010E94DA33CE3CD107C9F70E9429
:100C2000052E0C9420340C940000EF92FF920F9349
:100C30001F93F22FF02E47FD02C0E4E001C0E4E173
:100C4000242F332727FD309537FF03C0309521959A
:100C50003F4F4F2D512F0F2FEE2E0E9460068F2DEC
:100C6000912F1F910F91FF90EF900895662777279E
:100C70000C94C207FB01DC0104C08D910190801926
:100C800021F441505040C8F7881B990B0895FB018F
:100C9000DC0102C001900D9241505040D8F70895F8
:100CA000FB01DC018D91019080190110D9F3990BA2
:100CB0000895FB01DC0101900D920020E1F70895F9
:100CC000A9E0B0E0E6E6F6E00C94ED336A01122FFD
:100CD000A02EBE2C2BE3201718F42CE3922E02C07A
:100CE000902E9394AE014F5F5F4F27E0092D0E9435
:100CF0002209BC018981E82EFF24C7018970907008
:100D0000019711F4ADE209C0B1FE02C0ABE205C02B
:100D1000B0FC02C0A0E001C0A0E2E3FE3BC0AA23F9
:100D200011F423E001C024E0211710F020E002C0FC
:100D3000121B212FEB2CB4FE02C0322F0AC0F60189
:100D4000322F80E202C0819331503323E1F7C20E8B
:100D5000D11CAA2319F0F601A1936F01F601319677
:100D6000E2FE05C09EE4D6019C9381E404C09EE6A9
:100D7000D6019C9381E611968C9391833296DF0184
:100D8000832F90E202C09D9381508823E1F7E30F07
:100D9000F11D40C0E2FE42C0AA2311F423E001C0CD
:100DA00024E0211710F020E002C0121B212FEB2CB1
:100DB000B4FE02C0922F0AC0F601922F80E202C058
:100DC000819391509923E1F7C20ED11CAA2319F007
:100DD000F601A1936F01F6013196E2FE08C089E4A5
:100DE000D6018C938EE411968C9386E407C089E635
:100DF000D6018C938EE611968C9386E6818332968B
:100E0000DF01892F20E202C02D9381508823E1F772
:100E1000E90FF11D10822EEF3FEFAFC01616170637
:100E20001CF041E050E003C0AB014F5F5F4FAA20D0
:100E300019F480E090E003C08A2D90E0019620E054
:100E400030E0AA2311F021E030E0240F351F280FF5
:100E5000391F812F90E02817390714F020E002C0D5
:100E6000121B212F4B2D50E0CA0180719070B4FCF1
:100E70000DC0B3FC0BC0F601322F40E202C041931B
:100E800031503323E1F7C20ED11C01C0322FAA2307
:100E900019F0F601A1936F01892B11F0132F0AC0ED
:100EA000F601132F80E302C0819311501123E1F763
:100EB000C30ED11C092D060FBA8090E1892E912C0A
:100EC0008E209F20E4FE04C0F1E3BF1609F4015018
:100ED000101614F001E003C0093008F008E09B018F
:100EE00077FF02C020E030E0CB010196821B930B1C
:100EF000FE013196E80FF91F8EE2F82E3B01601AD1
:100F000071088A2D90E044275527481B590B8FEF15
:100F10002F3F380719F4D601FD926D016217730750
:100F20002CF06216730614F4808101C080E3215016
:100F3000304031962417350724F0D6018D936D018A
:100F4000E6CF2617370749F4B5E3BB1528F0BB16E3
:100F500021F48114910409F481E3F6018193D6010F
:100F6000812F90E202C09C93815011968823D9F77B
:100F7000E10FF11D108220E030E0C9012996EEE07A
:100F80000C940934A0E0B0E0E8ECF7E00C94EF3307
:100F9000EC015B016115710519F0FB019183808300
:100FA000F9908F2D90E00E94DE33892BC9F7FDE286
:100FB000FF1621F4F990EE24E39405C02BE2F2161B
:100FC00009F4F990EE248E0101501040C80168E93F
:100FD0007AE043E050E00E94FA09892B01F58E0186
:100FE0000E5F1F4FC8016BE97AE045E050E00E94B8
:100FF000FA09892B19F48E01095F1F4FA114B1045E
:1010000019F0F50111830083E0FC04C070E090E06A
:1010100080E814C070E090E080E86FEF08C1C8017C
:1010200060EA7AE043E050E00E94FA09892B69F413
:10103000A114B10429F470E090E080EC6FE7F7C0F0
:101040002296F501D183C083F6CF8824992440E00D
:1010500050E060E070E0EF2DE053EA30A0F5F2E000
:10106000EF2A8E2D90E09C0128703070E2FE06C0C1
:10107000232B79F50894811C911C2BC0232B19F08C
:10108000089481089108DB01CA0112E0880F991FBA
:10109000AA1FBB1F1A95D1F7480F591F6A1F7B1F44
:1010A000440F551F661F771F4E0F511D611D711D87
:1010B000483929E9520729E9620729E1720748F00E
:1010C00084E0E82A06C0EE3F31F4E3FC39C098E042
:1010D000E92AF990C0CFE53311F0E53189F529917E
:1010E0002D3219F4E0E1EE2A05C02B3219F081E02F
:1010F00090E003C0299182E090E0E22FE053EA30D3
:1011000018F0C81BD90B1CC020E030E0FCE02038F0
:101110003F075CF4C901880F991F880F991F280F9A
:10112000391F220F331F2E0F311DE991E053EA3092
:1011300068F3E4FE03C0309521953F4F820E931E65
:10114000CE2CDD24E1FE07C0A114B10421F02197CB
:10115000F501D183C083CB01BA010E94BB317B0171
:101160008C01F3E0CF22DD2423E0C216D10421F468
:1011700017FB109517F9109557016801C801B701C1
:1011800020E030E040E050E00E941E31882309F466
:101190004AC097FE0DC027EBE22E2AE0F22E909473
:1011A000819491089394C0E2D0E000E010E012C076
:1011B0009FECE92E9AE0F92EF6CFF70125913591B3
:1011C00045915491C601B5010E949D325B016C01AD
:1011D0008C1A9D0A8C169D0684F7D595C7950F5FCE
:1011E0001F4F0630110529F08CEF9FEFE80EF91E16
:1011F000F1CFC501D6017C018D018C2D880F8D2D7D
:10120000881F8F3F51F0C601B50120E030E040E07B
:1012100050E00E941E31882331F482E290E09093E6
:101220008204809381047E2D9F2D802F612F272F94
:10123000392F482F562FB901CA01CDB7DEB7ECE0E0
:101240000C940B34283008F027E03327DA01990F8B
:10125000311D87FD916000966105710539F432609A
:101260002E5F3D9330E32A95E1F708959F3F30F0DC
:1012700080387105610509F03C5F3C5F3D9391301A
:1012800008F08068911DDF93CF931F930F93FF9217
:10129000EF92192F987F9695E92F96959695E90FDD
:1012A000FF27E35DF44F99273327EE24FF24A7019E
:1012B000E70105900894079428F4360FE71EF81EFE
:1012C000491F511D660F771F881F991F0694A1F7AC
:1012D0000590079428F4E70EF81E491F561FC11DFC
:1012E000770F881F991F661F0694A1F70590079432
:1012F00028F4F80E491F561FC71FD11D880F991FCC
:10130000661F771F0694A1F70590079420F4490FF4
:10131000561FC71FD81F990F661F771F881F069477
:10132000A9F784911095177041F0D695C7955795F8
:101330004795F794E7941A95C1F7E3EDFAE06894BE
:101340001590159135916591959105907FE2739572
:10135000E118F10A430B560BC90BD009C0F7E10C99
:10136000F11E431F561FC91FD01D7EF4703311F4A8
:101370008A95E6CFE894015030F0080F0AF4002770
:10138000021708F4202F2395022F7A3328F079E3EF
:101390007D932A95E9F710C07D932A9589F60694E6
:1013A00097956795379517951794E118F10A430BB0
:1013B000560BC90BD00998F023957E9173957A331B
:1013C00008F070E37C932013B8F77E9170617D93F1
:1013D00030F0839571E37D9370E32A95E1F7112452
:1013E000EF90FF900F911F91CF91DF91992787FD8B
:1013F00090950895FB01DC014150504088F08D919B
:1014000081341CF08B350CF4805E659161341CF0E6
:101410006B350CF4605E861B611171F3990B0895B6
:10142000881BFCCFCF93DF93EC01DB01FA01411560
:10143000510511F4E881F9812181908180E0820FCA
:10144000911D11969C938E93948180E02581820F4B
:10145000911D13969C938E931297908580E0218521
:10146000820F911D15969C938E931497948580E01E
:101470002585820F911D17969C938E93169780E079
:10148000DF91CF910895FF920F931F93DF93CF9336
:10149000CDB7DEB728970FB6F894DEBF0FBECDBF2D
:1014A0008B01BE016F5F7F4F0E94120AF82E8823C6
:1014B00009F04CC069817A81882777FD8095982F43
:1014C0000E94BD3120E030E040E858E30E949D32A8
:1014D000F80160837183828393836B817C81882789
:1014E00077FD8095982F0E94BD3120E030E040E8E4
:1014F00058E30E949D32F801648375838683978345
:101500006D817E81882777FD8095982F0E94BD315F
:1015100020E030E040E858E30E949D32F801608707
:101520007187828793876F817885882777FD80957B
:10153000982F0E94BD3120E030E040E858E30E943F
:101540009D32F80164877587868797878F2D289647
:101550000FB6F894DEBF0FBECDBFCF91DF911F91C4
:101560000F91FF9008952F923F924F925F926F924A
:101570007F928F929F92AF92BF92CF92DF92EF9223
:10158000FF920F931F93DF93CF9300D000D000D032
:10159000CDB7DEB77E836D83DA0114966D907D90B2
:1015A0008D909C9017971C968D919D910D90BC915C
:1015B000A02D89839A83AB83BC83FA01A080B1807C
:1015C000C280D3802084318442845384C401B30117
:1015D00029813A814B815C810E949D327B018C0183
:1015E000C601B501A20191010E949D329B01AC018F
:1015F000C801B7010E9457309B01AC010E945830CE
:10160000AD81BE816D937D938D939C931397C6019D
:10161000B501A40193010E949D327B018C01C2019E
:10162000B10129813A814B815C810E949D329B01ED
:10163000AC01C801B7010E9458309B01AC010E9467
:101640005830ED81FE816483758386839783C6015C
:10165000B501A60195010E949D327B018C01C40158
:10166000B301A40193010E949D329B01AC01C8010A
:10167000B7010E9457307B018C01C201B101A20168
:1016800091010E949D329B01AC01C801B7010E94EB
:1016900057307B018C0169817A818B819C819B0110
:1016A000AC010E949D329B01AC01C801B7010E94B0
:1016B0005830AD81BE8118966D937D938D939C9328
:1016C0001B9780E026960FB6F894DEBF0FBECDBF05
:1016D000CF91DF911F910F91FF90EF90DF90CF900E
:1016E000BF90AF909F908F907F906F905F904F9042
:1016F0003F902F90089581E080938C010895AF92E0
:10170000BF92CF92DF92EF92FF920F931F9388E7E1
:1017100091E00E94BE2080E090E0A0E8BFE38093CB
:10172000D3019093D401A093D501B093D60180E06A
:1017300090E0A0E0B0E08093D7019093D801A0930F
:10174000D901B093DA018093DB019093DC01A0937F
:10175000DD01B093DE018093DF019093E001A0935F
:10176000E101B093E2018093E3019093E401A0933F
:10177000E501B093E6018093E7019093E801A0931F
:10178000E901B093EA018093EB019093EC01A093FF
:10179000ED01B093EE0100D000D000D080E090E0E9
:1017A000A0E2B1E4EDB7FEB781839283A383B48353
:1017B0001682158283E092E06FEF71E04BEF51E00B
:1017C00027E431E00F2EF0E0EF2EF0E0FF2EFCE6F4
:1017D0000F2FF2E41F2FF02D0F2EF0E0AF2EF0E0D0
:1017E000BF2EFAE8CF2EF2E4DF2EF02D0E94891CE6
:1017F0008DB79EB706960FB6F8949EBF0FBE8DBFED
:1018000084E492E067E070E046E050E025E030E0FC
:1018100003E010E0F4E0EF2EF12C0E940C208FE8A2
:1018200092E06CE070E04BE050E02AE030E008E04D
:1018300010E0E9E0EE2EF12C0E940C208EED92E0FB
:101840000E94A2161F910F91FF90EF90DF90CF9012
:10185000BF90AF9008958FE892E00E94E91D08952F
:1018600084E492E00E94E91D0895CF92DF92EF9206
:10187000FF920F931F93DF93CF9300D000D000D03F
:10188000CDB7DEB78E010F5F1F4FC80160E071E07A
:101890000E94CD2DB1E0CB2EB1E0DB2EC801B60108
:1018A0000E948A2DC80163E071E00E948A2DA3E0A6
:1018B000EA2EA2E0FA2EC7010E94811BAB01BC01F7
:1018C000C8010E94462DC801B6010E948A2DC80198
:1018D00067E071E00E948A2DC7010E948D1BAB0159
:1018E000BC01C8010E94462DC801B6010E948A2D84
:1018F000C8016BE071E00E948A2DC7010E94951B10
:10190000AB01BC01C8010E94462DC801B6010E946E
:101910008A2DC8016FE071E00E948A2D4091FB0181
:101920005091FC016091FD017091FE01C8010E947F
:10193000462DC801B6010E948A2DC80167E171E0F9
:101940000E948A2D4091FF01509100026091010296
:1019500070910202C8010E94462DC801B6010E9482
:101960008A2DC8016DE171E00E948A2D6091F3011A
:101970007091F4018091F5019091F60120E030E042
:1019800044E353E40E949D322BED3FE049E450E4F0
:101990000E942231AB01BC01C8010E94462DC80142
:1019A000B6010E948A2DC80164E271E00E948A2D6E
:1019B0006091EF017091F0018091F1019091F2013D
:1019C00020E030E044E353E40E949D322BED3FE001
:1019D00049E450E40E942231AB01BC01C8010E94DD
:1019E000462DC801B6010E948A2D87ED93E0B8010B
:1019F0000E94B52BC8010E94FF2D26960FB6F894C1
:101A0000DEBF0FBECDBFCF91DF911F910F91FF9031
:101A1000EF90DF90CF9008952F923F924F925F9278
:101A20006F927F928F929F92AF92BF92CF92DF92EE
:101A3000EF92FF920F931F93DF93CF9300D000D0CC
:101A400000D0CDB7DEB77E836D836A011901FA013C
:101A500084809580A680B780C501B401A50194015A
:101A60000E94583069837A838B839C83F601E080DF
:101A7000F1800281138120853185428553850E9442
:101A80009D322B013C01C801B70120E030E040E06D
:101A900050EC0E949D32F601248535854685578598
:101AA0000E949D329B01AC01C301B2010E945830DB
:101AB0002B013C01C801B701A80197010E945830D1
:101AC000A80197010E949D327B018C0169817A8176
:101AD0008B819C81A50194010E949D329B01AC01E8
:101AE000C801B7010E94583020E030E040E85FE3D1
:101AF0000E9457309B01AC01C301B2010E94CB3060
:101B0000ED81FE816083718382839383F10124815F
:101B1000358146815781E084F18402851385CA01AD
:101B2000B9010E949D325B016C01C801B701A80197
:101B300097010E949D329B01AC01C601B5010E9434
:101B400058300E9404339B01AC01F1016081718126
:101B5000828193810E9422310E94F630ED81FE81C4
:101B60006483758386839783F1012081318142816B
:101B70005381E084F18402851385CA01B9010E9472
:101B80009D325B016C01C801B701A80197010E9459
:101B90009D329B01AC01C601B5010E9458300E94E4
:101BA00004339B01AC01F1016481758186819781C9
:101BB0000E9422310E94F630ED81FE81608771879C
:101BC0008287938780E026960FB6F894DEBF0FBE1B
:101BD000CDBFCF91DF911F910F91FF90EF90DF90DC
:101BE000CF90BF90AF909F908F907F906F905F90BD
:101BF0004F903F902F9008954F925F926F927F92F7
:101C00008F929F92AF92BF92CF92DF92EF92FF920C
:101C10000F931F93DF93CF9300D000D000D0CDB7A8
:101C2000DEB780918B01882309F4FEC140919101B8
:101C30005091920120918F013091900180918C01FF
:101C4000882309F0DBC14217530708F0D7C1F6CF4C
:101C50002050344059F488E791E00E94A82387ED92
:101C600093E065E970E00E94A12B44C081FD09C0AA
:101C700041C088E791E00E94BC219093920180933B
:101C8000910140918F01509190018091910190912B
:101C900092018417950768F388E791E063E971E0A2
:101CA0000E94AD21809191019091920120918F012C
:101CB00030919001821B930B90939201809391013C
:101CC00088E791E063ED71E043E951E00E94430A47
:101CD00088E791E063EE71E043ED51E00E94B30AC2
:101CE00088E791E06FEE71E043ED51E023EE31E0E3
:101CF0000E940C0D6091F7017091F8018091F9013B
:101D00009091FA0120E030E044E353E40E949D32D8
:101D10002BED3FE049E450E40E9422317B018C012D
:101D20006093FF017093000280930102909302027E
:101D300020E030E040E050E00E94923218165CF45F
:101D4000C801B70120E030E040E751E40E94923240
:101D500018165CF01DC0C801B70120E030E040E774
:101D600051EC0E941E3188239CF483E092E060E0F5
:101D700070E00E940F1B80E090E0A0E0B0E0809354
:101D8000FB019093FC01A093FD01B093FE010AC0FA
:101D900083E092E061E070E00E940F1B83E092E03C
:101DA0000E94A21B6091FB017091FC018091FD01DA
:101DB0009091FE0190580E948A319B01AC0184E40D
:101DC00092E0B9010E94841F6091FB017091FC01B7
:101DD0008091FD019091FE0190580E948A319B01F3
:101DE000AC018FE892E0B9010E94841F0E945F2E2F
:101DF0002091DA023091DB024091DC025091DD0249
:101E0000621B730B840B950B20914B0130914C019D
:101E100040914D0150914E01621773078407950759
:101E200060F00E94350C0E945F2E6093DA0270937E
:101E3000DB028093DC029093DD028EED92E00E9443
:101E4000DC168EED92E00E94C4167B018C0183E0CB
:101E500092E00E94691B9B01AC01C801B7010E947E
:101E60001E31882329F58EED92E00E94BC167B017D
:101E70008C0183E092E00E94711B9B01AC01C801C0
:101E8000B7010E941E31882399F48EED92E00E94E2
:101E9000CC167B018C0183E092E00E94791B9B01B0
:101EA000AC01C801B7010E941E31882309F463C048
:101EB0008EED92E00E94C4162B013C018EED92E063
:101EC0000E94BC164B015C018EED92E00E94CC1684
:101ED0006B017C0183E092E0B301A20195018401D2
:101EE0000E9475198E010F5F1F4FC80160E071E0FD
:101EF0000E94CD2DC80169E271E00E948A2D83E025
:101F000092E00E94691BAB01BC01C8010E94462DF2
:101F1000C80161E071E00E948A2DC8016DE271E0A4
:101F20000E948A2D83E092E00E94711BAB01BC01EC
:101F3000C8010E94462DC80161E071E00E948A2D0F
:101F4000C80160E371E00E948A2D83E092E00E9464
:101F5000791BAB01BC01C8010E94462DC80161E09C
:101F600071E00E948A2D87ED93E0B8010E94B52BA5
:101F7000C8010E94FF2D8EED92E00E94D4162091A0
:101F80004701309148014091490150914A010E9416
:101F90001E31882309F448C08EED92E00E94D416C9
:101FA00060934701709348018093490190934A01DF
:101FB0008E010F5F1F4FC80160E071E00E94CD2DC0
:101FC000C80163E371E00E948A2D4091470150915E
:101FD00048016091490170914A01C8010E94462D53
:101FE000C80161E071E00E948A2D87ED93E0B8019D
:101FF0000E94B52BC8010E94FF2D16C010928C01C3
:1020000088E791E00E942F2180938D0188E791E07D
:102010000E94BC219C019093920180939101809138
:102020008D0184FF15CE17CE26960FB6F894DEBF2D
:102030000FBECDBFCF91DF911F910F91FF90EF9019
:10204000DF90CF90BF90AF909F908F907F906F90D8
:102050005F904F9008958F929F92AF92BF92CF92D0
:10206000EF920F93DF93CF93CDB7DEB7C059D04037
:102070000FB6F894DEBF0FBECDBF5C010E9498235F
:102080006EE170E080E090E00E94A82EC50160E063
:102090000E949023C50160E141E021E00E94D72029
:1020A000C50166E00E94D020C5010E941B21C50128
:1020B00060E040E020E00E94D720C5010E94C023DC
:1020C000C5010E949E24882EC5010E948024982E5E
:1020D000C5010E946224C82EC50160E04FE70E943E
:1020E000EB20C50160E00E94B023C50160E048E636
:1020F0000E94EB20C5010E94A02364E170E080E013
:1021000090E00E94A82EC50166EC71E049E857E016
:1021100020E000E0EE24E3940E946D23882311F474
:1021200081E0A6C1C5016FE479E040EC50E00E9477
:102130006923882311F482E09BC1C50163E00E94FA
:102140001624C50162E10E94E420C50164E00E94FA
:102150001421C50161E00E945724C50163E00E947B
:102160004C24C50163E00E942C24C50163E00E9459
:10217000C920C50160E00E94C220C50160E00E9444
:102180008823C501682D0E940B24C501692D0E947A
:102190000024C5016C2D0E94F52388249924BE01DA
:1021A0006F5F7F4FF401E15FF54FE491DB01A80D14
:1021B000B11DEC93282D2F5F0894811C911C83E0A6
:1021C000881580F74B81842F90E0029630E08217CB
:1021D000930744F7C501BE016C5F7F4F50E0298132
:1021E0000A81EE24E394CC240E94DB2150E0BE015E
:1021F0006F5F7F4FF401E15FF54FE491DB01A50FC5
:10220000B11DEC935F5F0894811C911C543090F3D6
:102210004B81842F90E00296252F30E082179307A0
:102220004CF7C501BE016C5F7F4F50E029810A81E8
:10223000EE24E394CC240E94DB21C5010E94A82354
:10224000C5010E94BC21482FC501BE016F5E7F4FB2
:102250000E94AD21C50162E00E940D21C5016CE91B
:102260000E94FF20C50160E50E940621C50160E0D3
:102270000E94F820C5010E94A823C50161E00E94C8
:10228000B823C50161E00E948023C5010E94782324
:1022900050E0BE016F5F7F4FF401E15FF54FE491C5
:1022A000DB01A50FB11DEC935F5F0894811C911CAD
:1022B000543090F34B81842F90E00296252F30E02C
:1022C000821793074CF7C501BE016C5F7F4F50E04A
:1022D00029810A81EE24E394CC240E94DB2150E082
:1022E000BE016F5F7F4FF401E15FF54FE491DB01C9
:1022F000A50FB11DEC935F5F0894811C911C5430B5
:1023000090F34B81842F90E00296252F30E08217C6
:1023100093074CF7C501BE016C5F7F4F50E02981E8
:102320000A81EE24E394CC240E94DB2150E0BE011C
:102330006F5F7F4FF401E15FF54FE491DB01A50F83
:10234000B11DEC935F5F0894811C911C543090F395
:102350004B81842F90E00296252F30E0821793075F
:102360004CF7C501BE016C5F7F4F50E029810A81A7
:10237000EE24E394CC240E94DB21C5010E94BC2101
:10238000AC0183309105C8F3C501BE016F5E7F4F7C
:102390000E94AD21C5010E942F2150E0BE016F5F58
:1023A0007F4FF401E15FF54FE491DB01A50FB11D13
:1023B000EC935F5F0894811C911C543090F34B8127
:1023C000842F90E00296252F30E0821793074CF778
:1023D000C501BE016C5F7F4F50E029810A810E94D8
:1023E0004321C5010E94BC21AC0183309105C8F393
:1023F000C501BE016F5E7F4F0E94AD21C5010E94E5
:102400002F2150E0BE016F5F7F4FF401E15FF54F78
:10241000E491DB01A50FB11DEC935F5F0894811C73
:10242000911C543090F34B81842F90E00296252F1D
:1024300030E0821793074CF7C501BE016C5F7F4FF8
:1024400050E029810A81EE24E394CC240E94DB2110
:10245000C50160E00E9480238AE290E0F501938349
:102460008283C5010E94A823C5010E942F2180E01C
:10247000C057DF4F0FB6F894DEBF0FBECDBFCF9170
:10248000DF910F91EF90CF90BF90AF909F908F9082
:10249000089587ED93E06AEA71E00E94A12B88E736
:1024A00091E00E94372487ED93E06CE871E00E9490
:1024B000A12B88E791E00E94DA24882319F06EE6C8
:1024C00071E002C064E571E087ED93E00E94A12B0A
:1024D00087ED93E00E94CD29892B09F44DC087ED4B
:1024E00093E00E94E929892B09F446C0F1CF87EDDA
:1024F00093E060E371E00E94A12B88E791E061E046
:102500000E94802387ED93E061EF70E00E94A12B91
:1025100082E06BE77BE043E050E00E94471988E7E8
:1025200091E00E942F2180938D0187ED93E067EC6D
:1025300070E00E94A12B81E080938B0180917A0151
:1025400090917B019093900180938F01089587ED86
:1025500093E066EA70E00E944C2B87ED93E0609177
:102560008E014AE050E00E94582C87ED93E064EA27
:1025700070E00E94A12B089587ED93E060E471E084
:102580000E94A12B88E791E00E942B1080938E017E
:1025900060913F017091400188E791E00E94E7233C
:1025A000609141017091420188E791E00E94E0232F
:1025B000609143017091440188E791E00E94D92322
:1025C000609145017091460188E791E00E94EE23F9
:1025D00080918E01882309F0BACF89CFCF92DF9204
:1025E000EF92FF920F931F938AEA93E00E9497164F
:1025F00088E18093B80087ED93E040E052EC61E021
:1026000070E026E00E9469290E94491213E0E12E41
:1026100012E0F12EC70161E070E00E940F1BC701BC
:1026200040E050E06FE773EC00E010E02FE733E4A8
:102630000E948F1AC7016AE070E00E94411AC70128
:1026400040E050E062EC72E400E010E024E032E4AC
:102650000F2EF0E0CF2EF0E0DF2EFCEFEF2EF1E4B6
:10266000FF2EF02D0E94751984E492E060E070E086
:102670000E942B1D8FE892E060E070E00E942B1D0D
:1026800083E060E37CE041E050E00E94471988E08D
:102690006BE27CE041E050E00E9447191F910F91EE
:1026A000FF90EF90DF90CF900895382F413210F0D7
:1026B00040E042C08091F6028823E1F791E09093D8
:1026C000F6022093F8028FEF8093630310921E03AB
:1026D000415040931F034F5F9093F7028091F702A0
:1026E000330F832B8093F7028091F902813041F4FC
:1026F0001092F9028091F7028093BB0085EC01C033
:1027000085EE8093BC008091F6028130E1F38091E8
:102710001E03841710F440911E0320E030E00AC02D
:10272000FB01E20FF31FD901A250BD4F8C918083B2
:102730002F5F3F4F2417A0F3842F08950F931F930B
:10274000582F122F413210F081E04AC08091F602DA
:102750008823E1F782E08093F6020093F8028FEF7E
:102760008093630310921E0340931F03AEEFB2E009
:10277000FB0102C081918D938E2F861B8417D0F3AD
:102780001092F7028091F702550F852B8093F70284
:102790008091F902813041F41092F9028091F702A0
:1027A0008093BB0085EC01C085EE8093BC001123B3
:1027B00021F08091F6028230E1F3809163038F3F34
:1027C00011F480E00DC080916303803211F482E047
:1027D00007C080916303803311F084E001C083E07F
:1027E0001F910F910895482F613210F081E00895F4
:1027F0008091F602843011F082E0089560934103E5
:10280000A0E2B3E0842F9C01F90102C081918D9375
:102810008E2F841B8617D0F380E008951F920F92AD
:102820000FB60F9211242F933F934F935F936F93A3
:102830007F938F939F93AF93BF93EF93FF93809179
:10284000B90090E0887F90708036910509F4F2C05D
:1028500081369105CCF58832910509F47BC0893227
:102860009105B4F48031910509F46FC0813191056F
:102870003CF4009709F447C1089709F04FC165C0BF
:102880008831910509F466C0809709F047C182C07C
:102890008034910509F4A4C08134910544F4803357
:1028A000910509F482C0C89709F038C189C0803504
:1028B000910509F489C08835910509F496C08834DA
:1028C000910509F02BC1AEC08839910509F413C1F7
:1028D00089399105ECF48837910509F4ABC0893743
:1028E00091054CF48836910509F4A4C08037910510
:1028F00009F014C19FC08838910509F4FCC08039E3
:10290000910509F49DC08038910509F007C198C070
:10291000803B910509F4C6C0813B91054CF4803A97
:10292000910509F49FC0883A910509F0F7C0BAC033
:10293000803C910509F4E3C0883C910509F4DFC0AF
:10294000883B910509F0EAC0C2C08091F7028093EC
:10295000BB00CFC090911E0380911F03981768F4AD
:1029600090911E03E92FF0E0E250FD4F80818093AB
:10297000BB009F5F90931E03BCC08091F802882328
:1029800009F44BC085ED8093BC008091BC0084FDB0
:10299000FCCFC2C080E28093630385ED8093BC00CE
:1029A0008091BC0084FDFCCFB7C080E380936303BB
:1029B00085ED8093BC008091BC0084FDFCCFACC051
:1029C00088E3809363039BC080911E039091BB00BA
:1029D000E82FF0E0E250FD4F90838F5F80931E035D
:1029E00090911E0380911F0382C080911E039091DD
:1029F000BB00E82FF0E0E250FD4F90838F5F8093A3
:102A00001E038091F802882341F085ED8093BC007D
:102A10008091BC0084FDFCCF7FC081E08093F902EF
:102A200084EA6EC085ED8093BC008091BC0084FD7B
:102A3000FCCF72C083E08093F6021092620359C00B
:102A400080916203803208F056C0809162039091B9
:102A5000BB00E82FF0E0EE5BFC4F90838F5F80932C
:102A6000620347C080916203803230F4E0916203D8
:102A7000F0E0EE5BFC4F108285ED8093BC0080910E
:102A8000BC0084FDFCCF1092F60260916203E091DD
:102A9000FC02F091FD0282E493E070E0099510924F
:102AA00062032DC084E08093F602109240031092DE
:102AB0004103E091FA02F091FB02099580914103F4
:102AC000882329F481E080934103109220039091A0
:102AD0004003E92FF0E0E05EFC4F80818093BB0073
:102AE0009F5F90934003909140038091410398171A
:102AF00010F485EC01C085E88093BC000FC085EC24
:102B00008093BC0009C01092630385ED8093BC00E4
:102B10008091BC0084FDFCCF1092F602FF91EF91F2
:102B2000BF91AF919F918F917F916F915F914F91E5
:102B30003F912F910F900FBE0F901F9018951092FC
:102B4000F60281E08093F8021092F90282E161E0DE
:102B50000E94AF2F83E161E00E94AF2FE9EBF0E02C
:102B600080818E7F808380818D7F808388E48093C5
:102B7000B80085E48093BC00089581E08093A903A8
:102B8000609386031092A7031092A80308952091E2
:102B9000850330E080918403281B3109C901089521
:102BA0004091840380918503481718F02FEF3FEF81
:102BB0000AC0E42FF0E0EC59FC4F8081282F30E070
:102BC0004F5F40938403C9010895E091840380918D
:102BD0008503E81718F0EFEFFFEF06C0F0E0EC59BF
:102BE000FC4F8081E82FF0E0CF0108950895109206
:102BF000AD031092AC0388EE93E0A0E0B0E08093C8
:102C0000AE039093AF03A093B003B093B1038BE5F1
:102C100091E09093AB038093AA030895CF92DF9243
:102C2000EF92FF920F931F93CF93DF937C016B0181
:102C30008A018091A9038823A1F0C0E0D0E00DC0F3
:102C4000D701ED91FC91D601AC0FBD1F0190F08131
:102C5000E02DC7016C9109952196C017D10780F32B
:102C600004C0CB01642F0E94F313C801DF91CF9100
:102C70001F910F91FF90EF90DF90CF900895DF9319
:102C8000CF930F92CDB7DEB7FC0169838091A90382
:102C90008823C9F08091A803803238F081E090E069
:102CA0009383828320E030E015C08091A703E82F52
:102CB000F0E0E957FC4F998190838F5F8093A703E1
:102CC0008093A80305C0CE01019661E00E94F31332
:102CD00021E030E0C9010F90CF91DF9108950F936B
:102CE000062F8091860367E873E04091A80321E0F6
:102CF0000E949E131092A7031092A8031092A9039A
:102D00000F91089561E00E946F160895413208F016
:102D100040E2862F64E673E00E945513109284030C
:102D200080938503089521E00E94861608951092ED
:102D30008403109285031092A7031092A8030E94A7
:102D40009F150895FC0180E090E0A0E0B0E0808352
:102D50009183A283B38384839583A683B78380877B
:102D60009187A287B38784879587A687B787808B4B
:102D7000918BA28BB38B0895FC012081318142811C
:102D80005381B901CA010895FC012085318542852E
:102D90005385B901CA010895FC012481358146811A
:102DA0005781B901CA010895FC01248535854685FE
:102DB0005785B901CA010895AF92BF92DF92EF9291
:102DC000FF920F931F93DF93CF93CDB7DEB72C976E
:102DD0000FB6F894DEBF0FBECDBF5C018E010F5F52
:102DE0001F4FC8016EE371E00E94CD2D87ED93E087
:102DF0000E94072A80E3D82EF02E012F14C087ED01
:102E000093E00E94E929682F80E3D81611F4D62EAA
:102E100004C08F2D902F0E94772D61E070E080E03C
:102E200090E00E94A82E87ED93E00E94CD2918160D
:102E300019062CF38E010F5F1F4FC8016EE371E07E
:102E40000E94C02C882309F04AC0C8010E94B32CFC
:102E500020E030E040E251E40E9422317B018C010D
:102E6000CE0107966EE371E00E94CD2DE9E4DE16F7
:102E7000A9F0ED1524F0F4E4DF1639F517C080E56C
:102E8000D81621F0E3E5DE1601F518C0C701D80118
:102E9000F50180879187A287B38717C0C701D80142
:102EA000F50180839183A283B3830FC0C701D8014A
:102EB000F50184839583A683B78307C0C701D80132
:102EC000F50184879587A687B787CE0101966EE3C3
:102ED00071E00E94E62DCE0107960E94FF2DCE01E3
:102EE00001960E94FF2D2C960FB6F894DEBF0FBE00
:102EF000CDBFCF91DF911F910F91FF90EF90DF90A9
:102F0000BF90AF900895CF93DF93EC01DB01129651
:102F10002C93129711965C934E93EA81FB818081EA
:102F200013969C911397892B808312968C911297FC
:102F3000833011F0813031F48D8113969C91139779
:102F4000892B8D8312968C9112978150823028F4B0
:102F50008E8113969C91892B8E83809168009C8131
:102F6000892B80936800DF91CF910895EF92FF92B3
:102F70000F931F93CF93DF938C015091B603D80129
:102F800017962C91179715964C9115979091B6031B
:102F900016963C9116978091B603809583239423CF
:102FA000892B252782239091B60317969C93179718
:102FB0001896CD91DC911997E82EFF241CC08B81C7
:102FC000282F30E0C70182239323892B89F0809139
:102FD000B60340E090E082239323892B09F041E07F
:102FE0004093B8038C818093B703E881F9810995F8
:102FF0000D80DE81C02D209711F78BB3F8019481ED
:10300000892351F08BB3892B8BBB0190F081E02D8C
:1030100080818093B603B1CFDF91CF911F910F9143
:10302000FF90EF9008951F920F920FB60F92112408
:103030002F933F934F935F936F937F938F939F93C0
:10304000AF93BF93EF93FF93E091B903F091BA036D
:1030500080818093B60389EB93E00E94B617FF91BD
:10306000EF91BF91AF919F918F917F916F915F9100
:103070004F913F912F910F900FBE0F901F90189579
:103080001F920F920FB60F9211242F933F934F93DD
:103090005F936F937F938F939F93AF93BF93EF93C0
:1030A000FF93E091C303F091C40380818093B60342
:1030B00083EC93E00E94B617FF91EF91BF91AF911F
:1030C0009F918F917F916F915F914F913F912F9140
:1030D0000F900FBE0F901F9018951F920F920FB672
:1030E0000F9211242F933F934F935F936F937F938E
:1030F0008F939F93AF93BF93EF93FF93E091CD0393
:10310000F091CE0380818093B6038DEC93E00E9412
:10311000B617FF91EF91BF91AF919F918F917F91E2
:103120006F915F914F913F912F910F900FBE0F9034
:103130001F901895E6E5FAE0859194919093BA0373
:103140008093B9038BE690E09093BC038093BB031C
:1031500081E08093BD031092BE031092BF031092D2
:10316000C2031092C103E8E5FAE08591949190932F
:10317000C4038093C3038CE690E09093C6038093CE
:10318000C50382E08093C7031092C8031092C9035D
:103190001092CC031092CB03EAE5FAE0859194916A
:1031A0009093CE038093CD038DE690E09093D0036F
:1031B0008093CF0384E08093D1031092D2031092C6
:1031C000D3031092D6031092D5030895CF92DF92C5
:1031D000EF92FF920F931F93CF93DF938C01F62E04
:1031E0006A01E22EFC01C085D185209789F08C818F
:1031F0008F1541F4C801BE01A6012E2D0E94831730
:1032000080E03CC08D819E81009731F0EC01EFCFD2
:1032100080E090E09C01E90187E090E00E94142E9C
:10322000DC0111961C921E9212961C921297009726
:1032300011F48FEF23C01496FC9214971296EC921F
:10324000129716961C921E921597EF2DF0E0E059FA
:10325000F54FE4911396EC931397F80180859185CF
:10326000892B19F4B187A08702C0BE83AD83C80142
:10327000BD01A6012E2D0E94831781E0DF91CF9121
:103280001F910F91FF90EF90DF90CF900895582FEE
:103290009B01742FE82FF0E0E45AF54F84918823C6
:1032A00011F121153105F9F0833051F0843059F0D6
:1032B000823019F4A9EBB3E008C0A0E0B0E005C08B
:1032C000A3ECB3E002C0ADECB3E0ED91FC9111973B
:1032D000808117968C931797CD01652FA901272F11
:1032E0000E94E61808958FEF08952F923F924F9213
:1032F0005F926F927F928F929F92AF92BF92CF9286
:10330000DF92EF92FF920F931F93DF93CF9300D042
:1033100000D0CDB7DEB71C0149835A836B837C8311
:103320004801590126013701CB01BA0120E030E004
:1033300040E050E00E941E3187FD8CC0C501B40101
:1033400020E030E040E050E00E941E3187FD82C066
:10335000C701B60120E030E040E050E00E941E319D
:1033600087FD78C089819A81AB81BC81F10180831E
:103370009183A283B383D10114968D929D92AD92D5
:10338000BC921797C086D186E286F38664A975A998
:1033900086A997A90E94BB3120E030E04AE754E4B7
:1033A0000E9422317B018C0189819A81AB81BC8191
:1033B000F10184879587A687B787C501B401A80165
:1033C00097010E949D325B016C01D10150966D9373
:1033D0007D938D939C935397C301B201A8019701EC
:1033E0000E9422317B018C01F101648B758B868BED
:1033F000978B808D918D019769F560E070E080E09A
:1034000090E029813A814B815C810E945730D10143
:103410001C966D937D938D939C931F9760E070E055
:1034200080E090E0A60195010E945730F101608B89
:10343000718B828B938B60E070E080E090E0A8015C
:1034400097010E945730D10154966D937D938D93CF
:103450009C9357970F900F900F900F90CF91DF9103
:103460001F910F91FF90EF90DF90CF90BF90AF90A2
:103470009F908F907F906F905F904F903F902F9094
:103480000895AF92BF92CF92DF92EF92FF920F9387
:103490001F93CF93DF93EC0116161706ACF55B0173
:1034A000CC24B7FCC094DC2CC601B5010E94BD3110
:1034B0007B018C016CA97DA98EA99FA90E94BB31BB
:1034C0009B01AC01C801B7010E9422317B018C0134
:1034D000688979898A899B89A80197010E949D3210
:1034E000688B798B8A8B9B8B6C897D898E899F8970
:1034F000A80197010E9422316C8B7D8B8E8B9F8B54
:10350000ACAABDAACEAADFAADF91CF911F910F91DD
:10351000FF90EF90DF90CF90BF90AF9008954F92C3
:103520005F926F927F928F929F92AF92BF92CF9253
:10353000DF92EF92FF920F931F93CF93DF93EC01F3
:103540003A014B0178018901CB01BA01A801970129
:103550000E94923287FF52C068AE79AE8AAE9BAEAF
:10356000ECAEFDAE0EAF1FAFC05CDF4F8881C05424
:10357000D040882309F442C04C8C5D8CF201A080BD
:10358000B180C280D380C601B501A80197010E9415
:103590009232181634F4F201E082F182028313832E
:1035A0000DC0C601B501A40193010E941E318823FC
:1035B0002CF4F2016082718282829382ACA0BDA061
:1035C000CEA0DFA0ECACFDAC0EAD1FADC601B501C9
:1035D000A80197010E949232181664F0E8ACF9AC89
:1035E0000AAD1BADC601B501A80197010E941E31AD
:1035F000882324F4ECA2FDA20EA31FA3DF91CF9198
:103600001F910F91FF90EF90DF90CF90BF90AF9000
:103610009F908F907F906F905F904F9008959F92B2
:10362000AF92BF92CF92DF92EF92FF920F931F93D0
:10363000CF93DF93EC0199246130710511F4992443
:103640009394C05CDF4F8881C054D04091E08927BB
:10365000981681F5EC8DFD8DE080F180028113815B
:10366000ECA2FDA20EA31FA3EA8DFB8D80819181A8
:10367000A281B38188A799A7AAA7BBA7ACACBDAC10
:10368000CEACDFACC801B701A60195010E94923211
:10369000181664F0A8ACB9ACCAACDBACC801B70171
:1036A000A60195010E941E31882324F4ACA2BDA27C
:1036B000CEA2DFA2C05CDF4F9882DF91CF911F9135
:1036C0000F91FF90EF90DF90CF90BF90AF909F90C1
:1036D0000895FC012081318142815381B901CA01E1
:1036E0000895FC012481358146815781B901CA01C1
:1036F0000895FC012085318542855385B901CA01B1
:103700000895FC01648575858685978524A535A572
:1037100046A557A50E949D320895FC0124A135A11C
:1037200046A157A1B901CA010895FC0164897589B0
:1037300086899789905820A931A942A953A90E9446
:103740009D3208952F923F924F925F926F927F9297
:103750008F929F92AF92BF92CF92DF92EF92FF92A1
:103760000F931F93CF93DF93EC01C05CDF4F8881F1
:10377000C054D040882309F4B8C00E945F2E1B01BA
:103780002C0188A199A1AAA1BBA1A2019101281B8A
:10379000390B4A0B5B0B8CA99DA9AEA9BFA92817B1
:1037A00039074A075B0708F4A0C0EA8DFB8D6080EB
:1037B000718082809380EE8DFF8D60817181828126
:1037C0009381A40193010E9457306CA77DA78EA717
:1037D0009FA7288939894A895B890E949D322CA13B
:1037E0003DA14EA15FA10E9458307B018C016CA3CA
:1037F0007DA38EA39FA3ACACBDACCEACDFACA601C9
:1038000095010E949232181664F0A8ACB9ACCAAC0B
:10381000DBACC801B701A60195010E941E318823C7
:1038200024F4ACA2BDA2CEA2DFA2C401B30128A59C
:1038300039A54AA55BA50E9457305B016C0168ABB6
:1038400079AB8AAB9BAB6C857D858E859F852CA5DE
:103850003DA54EA55FA50E949D322CA13DA14EA184
:103860005FA10E9458307B018C01C601B5012C89F3
:103870003D894E895F890E949D329B01AC01C80140
:10388000B7010E9457307B018C01DCACCDACBEACE3
:10389000AFAC2D2D3C2D4B2D5A2D0E949232181677
:1038A00074F0D8ACC9ACBAACABACC801B7012D2D23
:1038B0003C2D4B2D5A2D0E941E31882334F48D2D22
:1038C0009C2DAB2DBA2D7C018D01EC8DFD8DE08200
:1038D000F1820283138368A679A68AA69BA628A2F2
:1038E00039A24AA25BA281E001C080E0DF91CF91C2
:1038F0001F910F91FF90EF90DF90CF90BF90AF900E
:103900009F908F907F906F905F904F903F902F90FF
:1039100008952F923F924F925F926F927F928F9273
:103920009F92AF92BF92CF92DF92EF92FF920F934E
:103930001F93DF93CF93CDB7DEB74C01270138013A
:10394000298C3A8CFC01558F448F738F628F378F8F
:10395000268F80E4E82EF12CE80CF91CF701108288
:10396000C40140E050E06FE773EC00E010E02FE7A7
:1039700033E40E948F1A82E390E0A0E0B0E0F4010B
:1039800084AB95ABA6ABB7ABF7018081882399F1E7
:10399000F401808D918D2816390669F160E070E0A0
:1039A00080E090E024853585468557850E94573014
:1039B000F401648775878687978760E070E080E010
:1039C00090E020893189428953890E945730F4015F
:1039D000608B718B828B938B60E070E080E090E075
:1039E00024893589468957890E945730F401648BB0
:1039F000758B868B978BF401318E208EC401B301B9
:103A0000A20196018501CD88DE88EF88F88C0E949E
:103A100075190E945F2EF40124A935A946A957A95A
:103A2000621B730B840B950B60A371A382A393A3FA
:103A3000CF91DF911F910F91FF90EF90DF90CF908A
:103A4000BF90AF909F908F907F906F905F904F90BE
:103A50003F902F900895DF92EF92FF920F931F9364
:103A6000CF93DF93EC01DD246130710509F040C094
:103A7000DD24D39488AD8823D9F568A979A98AA9CA
:103A80009BA90E948A317AAF69AFECA4FDA40EA570
:103A90001FA5C801B70120E030E040E050E00E94DF
:103AA0001E3188235CF40F2EF0E0EF2EF0E0FF2EA5
:103AB000F0E00F2FF0E01F2FF02D14C0C801B70168
:103AC00020E030E04FE753E40E949232181654F49D
:103AD0000F2EF0E0EF2EF0E0FF2EFFE70F2FF3E4C4
:103AE0001F2FF02DEF96E882F9820A831B83EF9750
:103AF000D8AEDF91CF911F910F91FF90EF90DF90A3
:103B00000895AF92BF92CF92DF92EF92FF920F9300
:103B10001F936C01FC01E284F38404851585628D9A
:103B2000738D88EE93E00E9487338CE390E09B01D5
:103B3000289FB001299F700D389F700D112480E0DF
:103B400090E02289338944895589E21AF30A040BEB
:103B5000150BA80197010E94683328E631E040E088
:103B600050E00E94BD33F601268B378B408F518F7A
:103B700082859385A485B585828B938BA48BB58B29
:103B800000D000D08FEF90E0A0E0B0E0EDB7FEB73E
:103B900081839283A383B483CA01B90120E030E01A
:103BA00040E050E0E0EAEE2EF12C012D112DAA2488
:103BB000BB2465010E946A2C0F900F900F900F900C
:103BC0001F910F91FF90EF90DF90CF90BF90AF903B
:103BD0000895CF93DF93EC018091B803882331F0EF
:103BE00088850E940330892B31F00DC088850E94A2
:103BF0000330892B41F08A859B85AC85BD85019773
:103C0000A109B10907C08A859B85AC85BD85019650
:103C1000A11DB11D8A879B87AC87BD87DF91CF919E
:103C200008958F929F92AF92BF92CF92DF92EF92C0
:103C3000FF920F931F93CF93DF93EC01962E872E65
:103C40000E945F2E5B016C0188A599A5AAA5BBA562
:103C5000A6019501281B390B4A0B5B0B8A8D9B8DA6
:103C6000A0E0B0E0281739074A075B0708F4D3C083
:103C7000CE010E94811D0E94BD317B018C0168AB89
:103C800079AB8AAB9BAB20E030E040E050E00E9493
:103C90009232181624F017FB109517F91095892DFC
:103CA000982D9C0137FF03C0309521953F4FB901F6
:103CB000882777FD8095982F0E94BD31A801970134
:103CC0000E9457306BAF7CAF8DAF9EAF2CA13DA152
:103CD0004EA15FA10E949D32EF96288139814A81D1
:103CE0005B81EF970E9458307B018C0120E030E02F
:103CF00040E050E00E941E3188235CF40F2EF0E07B
:103D0000EF2EF0E0FF2EF0E00F2FF0E01F2FF02D50
:103D100014C0C801B70120E030E04FE753E40E942F
:103D20009232181654F40F2EF0E0EF2EF0E0FF2E32
:103D3000FFE70F2FF3E41F2FF02DEF96E882F982B3
:103D40000A831B83EF97E8A8F9A80AA91BA9C80151
:103D5000B70120E030E040E050E00E9492321816B7
:103D600024F017FB109517F9109569AD7AAD8827E7
:103D700077FD8095982F0E94BD319B01AC01C80151
:103D8000B7010E94573028A139A14AA15BA10E9426
:103D90009D327B018C01CD5BDF4F688379838A8301
:103DA0009B83C354D0406BAD7CAD8DAD9EAD2C8D4F
:103DB0003D8D4E8D5F8D0E949D32A80197010E941E
:103DC0005730EF96288139814A815B810E945830B3
:103DD0002896688379838A839B83C754D040A8A69A
:103DE000B9A6CAA6DBA6E8A8F9A80AA91BA9C80112
:103DF000B70120E030E040E050E00E949232181617
:103E00001CF4C801B70103C0C801B70190580E9453
:103E10008A317AAF69AFC95BDF4FE880F9800A81E8
:103E20001B81C801B70120E030E040E050E00E9473
:103E3000923288234CF0C801B70120E030E040E026
:103E40005FE30E94583008C0C801B70120E030E0AD
:103E500040E05FE30E9457300E948A3197FF03C021
:103E600060E070E043C0C801B70120E030E040E00E
:103E700050E00E94923288234CF0C801B70120E044
:103E800030E040E05FE30E94583008C0C801B7014D
:103E900020E030E040E05FE30E9457300E948A312A
:103EA0006F3F71058105910521F01CF06FEF70E007
:103EB0001DC0C801B70120E030E040E050E00E94A2
:103EC000923288234CF0C801B70120E030E040E096
:103ED0005FE30E94583008C0C801B70120E030E01D
:103EE00040E05FE30E9457300E948A31CB01DF91AE
:103EF000CF911F910F91FF90EF90DF90CF90BF90E7
:103F0000AF909F908F900895CF92DF92EF92FF92A3
:103F10000F931F93CF93DF93EC01C72ECC1CCC24BF
:103F2000CC1C9B0177FF03C0309521953F4F88AD96
:103F3000882389F0CE01B9010E94111EAA2797FD9E
:103F4000A095BA2FBC01CD010E94BD316CA77DA701
:103F50008EA79FA733C0B901882777FD8095982F3A
:103F60000E94BD316CA77DA78EA79FA70E945F2EE0
:103F70007B018C0188A599A5AAA5BBA5A8019701DD
:103F8000281B390B4A0B5B0B8A8D9B8DA0E0B0E0A0
:103F9000281739074A075B0788F0CE010E94811D68
:103FA000882777FD8095982F0E94BD3168AB79AB4B
:103FB0008AAB9BABE8A6F9A60AA71BA7DC80ECA4FA
:103FC000FDA40EA51FA5C801B70120E030E040E028
:103FD00050E00E94923218161CF4C801B70103C0C9
:103FE000C801B70190580E948A318D2D0E94102F70
:103FF00088816C2D0E94AF2F60E0CC2009F461E035
:104000008A810E94AF2FDF91CF911F910F91FF9076
:10401000EF90DF90CF900895CF92DF92EF92FF92D2
:104020000F931F93CF93DF93EC01D62EC42E802FD6
:10403000688379834A835B833D832C830E831F834C
:10404000F986E88660E00E94702F8E8161E00E9410
:10405000AF2F888560E00E94702F888561E00E9404
:10406000AF2F1A861B861C861D868D2D61E00E944F
:10407000702F8C2D61E00E94702F8C8161E00E9476
:10408000702F1A8A1B8A1C8A1D8A86E696E6A6E489
:10409000B0E48C8F9D8FAE8FBF8F86E696E6A6EA42
:1040A000BFE38CA39DA3AEA3BFA380E090E0A0E8F4
:1040B000BFE388A399A3AAA3BBA380E590E09B8F4D
:1040C0008A8F0E945F2E2A8D3B8D40E050E0621B5C
:1040D000730B840B950B68A779A78AA79BA718AECB
:1040E00080E090E0A0E0B0E088AB99ABAAABBBABBE
:1040F000EF9688839983AA83BB83EF971AAE19AE94
:10410000ECA4FDA40EA51FA5C801B70120E030E076
:1041100040E050E00E941E3188235CF40F2EF0E056
:10412000EF2EF0E0FF2EF0E00F2FF0E01F2FF02D2C
:1041300014C0C801B70120E030E04FE753E40E940B
:104140009232181654F40F2EF0E0EF2EF0E0FF2E0E
:10415000FFE70F2FF3E41F2FF02DEF96E882F9828F
:104160000A831B83EF9781E088AFDF91CF911F9186
:104170000F91FF90EF90DF90CF900895FC0188E6BB
:1041800080830895FC01462F808161E70E946A25A3
:104190000895FC01462F808160E70E946A250895FA
:1041A000FC01462F80816EE60E946A250895FC017D
:1041B000962F9F71211190624111906480816DE66C
:1041C000492F0E946A250895FC01462F808168E3EB
:1041D0000E946A250895FC01862F643040F463E054
:1041E000869FB00111246B5D80810E946A2508952D
:1041F000FC01462F808162E20E946A250895FC013D
:10420000462F808161E20E946A250895FC01462FB5
:10421000808160E20E946A250895FC01462F80811A
:104220006FE10E946A250895FC01462F808169E1B3
:104230000E946A2508950F931F938C01AC014F5F74
:104240005F4F20914F0130915001FC0180816FE65A
:104250000E942C26F80181811F910F9108950F93E0
:104260001F938C01AC014F5F5F4F20914F01309144
:104270005001FC0180816AE30E942C26F8018181B3
:104280001F910F9108954F925F926F927F929F922C
:10429000AF92BF92CF92DF92EF92FF920F931F9354
:1042A000CF93DF936C013B015A01922EE02E622FD7
:1042B00040E020E00E94D720C601602F0E94D0205D
:1042C000C0E0D0E0412C91E0592E34C0CE014096A0
:1042D000A816B90618F080E1F82E02C0FA2CFC1AD4
:1042E0002F2D30E0C2018E1991098217930714F423
:1042F000FE2CF19493012C0F3D1F00914F01109162
:104300005001F60180816FE64F2D0E947A25CF0D76
:10431000D11DEF0CCA15DB0568F4EE2009F4939467
:10432000C601692D40E020E00E94D720C6016E2D15
:104330000E94D020CA15DB0548F2DF91CF911F9172
:104340000F91FF90EF90DF90CF90BF90AF909F9034
:104350007F906F905F904F9008950F931F93FC0193
:104360009B0100914F0110915001808164E70E94F0
:104370007A251F910F910895EF92FF920F931F934B
:104380007C019C012F5F3F4F00914F011091500124
:10439000FC01808162E742E00E947A25F701918169
:1043A00080E0228130E0282B392BC9011F910F9129
:1043B000FF90EF9008953F924F925F926F927F929D
:1043C0008F929F92AF92BF92CF92DF92EF92FF9225
:1043D0000F931F93DF93CF9300D000D0CDB7DEB7FC
:1043E0005C017A8369832A01622E702E3E2CEC2CAC
:1043F000622F40E020E00E94D720C501602F0E947C
:10440000D020332029F080E190E00E9423274C0146
:10441000EE2029F080E190E00E9423276C011C82AD
:104420001B827BC08B819C8140964816590618F0F0
:10443000E0E1FE2E03C0F42C8B81F81A2F2D30E022
:1044400080E091E0871991098217930714F4F72C03
:10445000F194E981FA81AB81BC81EA0FFB1FEE2068
:1044600089F0AF0120E030E00AC0FA018491F60142
:10447000E20FF31F80832F5F3F4F4F5F5F4F2F157A
:10448000A0F301C06F01D5018C916FE64F2D96010D
:104490000E943725332051F18114910439F1C5016F
:1044A000662D40E020E00E94D720C501672D0E94C4
:1044B000D02000914F0110915001F50180816FE6ED
:1044C0004F2D94010E947A25C601B4014F2D50E072
:1044D0000E943A06009751F0C4010E94C027EE20C6
:1044E00019F0C6010E94C02780E028C08B819C8102
:1044F0008F0D911D9C838B837F0C8415950568F42B
:10450000772009F46394C501662D40E020E00E9405
:10451000D720C501672D0E94D020AB81BC81A41596
:10452000B50508F47FCF332019F0C4010E94C027DD
:10453000EE2019F0C6010E94C02781E00F900F9075
:104540000F900F90CF91DF911F910F91FF90EF90FF
:10455000DF90CF90BF90AF909F908F907F906F90A3
:104560005F904F903F9008952F923F924F925F92AD
:104570006F927F928F929F92AF92BF92CF92EF9263
:10458000FF920F931F93CF93DF932C014B011A01DE
:10459000F22E222309F47CC088E090E00E942327B9
:1045A0005C0176C0AE014F5F5F4FF401EC0FFD1F61
:1045B000FF2091F08491BA016F5F7F4F480D591D24
:1045C000FA019491EB012196680D791DFB0164912C
:1045D000E82E092F162F0DC0E080F401E40FF51F1F
:1045E0000081CA010196F401E80FF91F1081EC0166
:1045F0002196112389F1FF20F1F0133030F0C5012D
:10460000612F70E00E9458285C01A4014C0F5D1FCF
:1046100020E030E0612F70E00AC0FA018491F501DA
:10462000E20FF31F80832F5F3F4F4F5F5F4F2617CF
:10463000370798F303C05401AC0EBD1E612E7724DA
:10464000C201B501A3012E2DEE24E394CC240E94D7
:10465000DB21882301F515C0F401EC0FFD1FCE010D
:104660000196FF2019F0EC01249102C02081EC0199
:10467000213039F4F201808168E342E30E946A2527
:104680000CC0FF2019F0C5010E94C02780E00FC0B8
:10469000C0E0D0E002C0C60DD71DC215D30508F496
:1046A00081CFFF2019F0C5010E94C02781E0DF9172
:1046B000CF911F910F91FF90EF90CF90BF90AF904F
:1046C0009F908F907F906F905F904F903F902F9032
:1046D000089521E00E94B4220895CF92EF920F93A3
:1046E000CC24C3940E94DB210F91EF90CF900895CA
:1046F000FC0180816AE643E021E00E948126089562
:10470000FC01262F80816AE647E00E9481260895F9
:10471000FC01262F808160E040E00E948126089500
:10472000FC01262F80816BE646E00E9481260895D9
:10473000FC0180816BE647E021E00E94812608951C
:10474000FC0180816AE641E021E00E948126089513
:10475000FC0180816AE642E021E00E948126089502
:10476000FC01262F80816AE645E00E94812608959B
:10477000FC01262F80816AE646E00E94812608958A
:10478000EF92FF920F931F937C019C012F5F3F4F8D
:1047900000914F0110915001FC01808160E040E0E8
:1047A0000E94FD26F70181811F910F91FF90EF90EC
:1047B0000895FC01AB01808167E10E9425250895E1
:1047C000FC01AB01808165E10E9425250895FC0173
:1047D000AB01808163E10E9425250895FC01AB01B6
:1047E00080816AE00E94252508950F93FC01062F21
:1047F000808162E046E026E00E9437260F9108950E
:104800000F93FC01062F808161E046E026E00E94C4
:1048100037260F9108950F93FC01062F808160E0E9
:1048200046E026E00E9437260F9108950F93FC0181
:10483000062F80816BE642E023E00E9437260F912D
:1048400008950F93FC01062F80816CE144E022E083
:104850000E9437260F9108950F93FC01062F808147
:104860006BE144E022E00E9437260F9108950F93F8
:104870001F938C0161E00E941624C80160E00E9431
:104880002C24C80160E00E942124C80160E00E943D
:1048900090231F910F9108950F93FC01062F8081A3
:1048A0006AE142E023E00E9437260F9108950F93BA
:1048B000FC01062F80816AE145E023E00E94372653
:1048C0000F910895CF92DF92EF92FF920F931F9373
:1048D0006C018C010F5F1F4FE0904F01F090500171
:1048E000FC01808162E046E026E00E94BB26F601E2
:1048F00081811F910F91FF90EF90DF90CF900895ED
:10490000CF92DF92EF92FF920F931F936C018C0175
:104910000F5F1F4FE0904F01F0905001FC0180812C
:1049200061E046E026E00E94BB26F60181811F91EE
:104930000F91FF90EF90DF90CF900895CF92DF928C
:10494000EF92FF920F931F936C018C010F5F1F4F2B
:10495000E0904F01F0905001FC01808160E046E062
:1049600026E00E94BB26F60181811F910F91FF90E6
:10497000EF90DF90CF900895CF92DF92EF92FF9269
:104980000F931F936C018C010F5F1F4FE0904F013D
:10499000F0905001FC01808165E746E026E00E942E
:1049A000BB26F60181811F910F91FF90EF90DF9060
:1049B000CF9008950E94BC2490E0843309F491E0E4
:1049C000892F0895CF92DF92FF920F931F93CF9379
:1049D000DF93582F162F042F69018AEA93E0652F81
:1049E0000E94BD158AEA93E0612F0E943F16C02FF6
:1049F000D0E0CC0FDD1FFF2412C0000F111F0C0DE3
:104A00001D1DF80161818AEA93E00E943F168AEA3F
:104A100093E0F80160810E943F16F2E0FF0E0F2D37
:104A200010E00C171D074CF38AEA93E00E948216EF
:104A300090E0882309F491E0892FDF91CF911F91B5
:104A40000F91FF90DF90CF900895DF93CF9300D028
:104A5000CDB7DEB75A83498341E09E012F5F3F4FB8
:104A60000E94E2240F900F90CF91DF910895EF9272
:104A7000FF920F931F93CF93DF93582F162FE42E9F
:104A8000022FF32E8AEA93E0652F0E94BD158AEA71
:104A900093E0612F0E943F16202F3F2DC901EC01AA
:104AA00010E006C08AEA93E069910E943F161F5FFA
:104AB0001E15C0F38AEA93E00E94821690E08823D4
:104AC00009F491E0892FDF91CF911F910F91FF9011
:104AD000EF900895DF93CF930F92CDB7DEB7498360
:104AE00041E09E012F5F3F4F0E9437250F90CF91ED
:104AF000DF9108952F923F924F925F926F927F9233
:104B00008F929F92AF92BF92CF92DF92EF92FF92DD
:104B10000F931F93DF93CF9300D000D00F92CDB7A8
:104B2000DEB7882E6983942E3B832A830E945F2EF2
:104B30005B016C01FF24EE24292C33242801662418
:104B400077244BC08AEA93E0682D0E94BD158AEA5B
:104B500093E069810E943F168AEA93E00E948216E0
:104B60008AEA93E0682D0E94BD15A1014E195109F2
:104B70004132510514F040E250E08AEA93E0682D9A
:104B80000E9493162F2D332727FD30958A819B8114
:104B9000280F391F3D832C838AEA93E00E94C715B2
:104BA000892B09F452C00115110561F00E945F2E96
:104BB0006A197B098C099D09641575058605970599
:104BC00008F043C08AEA93E00E94D015EC81FD8191
:104BD0008193FD83EC83F394DFCFE91408F4B2CF23
:104BE00001151105C9F00E945F2E6A197B098C0915
:104BF0009D09980140E050E062177307840795070C
:104C000058F02F2D332727FD3095892D90E0281758
:104C1000390714F4FF24FA948F2D0F900F900F9002
:104C20000F900F90CF91DF911F910F91FF90EF9018
:104C3000DF90CF90BF90AF909F908F907F906F90BC
:104C40005F904F903F902F900895892DF0E2F915D5
:104C500008F480E2E80EC1CF0F931F93FA01890197
:104C600041E09F010E947A251F910F910895DF92E4
:104C7000EF92FF920F931F93DF93CF930F92CDB7D5
:104C8000DEB7E82ED62EF42E122F20914F01309150
:104C90005001AE014F5F5F4F0E942C26882341F1E7
:104CA000212F30E04F2D50E04F5F5F4F421B530BE1
:104CB00081E090E002C0880F991F1A95E2F70197F2
:104CC000042E02C0880F991F0A94E2F7202F30E0CB
:104CD00002C0220F331F4A95E2F7482F40955981B1
:104CE00045238223482B49838E2D6D2D0E946A25F2
:104CF0000F90CF91DF911F910F91FF90EF90DF9078
:104D00000895EF92FF920F931F93DF93CF930F922B
:104D1000CDB7DEB7F82EE62E042F122F20914F01CB
:104D200030915001AE014F5F5F4F0E942C262981C8
:104D3000112351F081E090E002C0880F991F0A957D
:104D4000E2F7422F482B0AC081E090E002C0880FB2
:104D5000991F0A95E2F7482F4095422349838F2DEA
:104D60006E2D0E946A250F90CF91DF911F910F91B8
:104D7000FF90EF900895CF92DF92EF92FF920F9302
:104D80001F93DF93CF930F92CDB7DEB7C42ED22EF1
:104D90009701AE014F5F5F4F0E942C26682F88233A
:104DA00009F18D2D90E04C2D50E04F5F5F4F481B77
:104DB000590B21E030E002C0220F331FDA94E2F7F2
:104DC00021503040042E02C0220F331F0A94E2F714
:104DD0008981822390E002C0959587954A95E2F7F4
:104DE000F8018083862F0F90CF91DF911F910F9153
:104DF000FF90EF90DF90CF900895DF92EF92FF92B7
:104E00000F931F93DF93CF930F92CDB7DEB7D42EBE
:104E100079019801AE014F5F5F4F0E942C2621E07F
:104E200030E002C0220F331FDA94E2F79981922317
:104E3000F70190830F90CF91DF911F910F91FF9019
:104E4000EF90DF9008950F931F93CF93DF93BC01F2
:104E50008230910510F462E070E0E0917F04F091FF
:104E6000800440E050E0A0E0B0E024C08081918167
:104E700086179707D0F08617970771F48281938180
:104E8000109729F013969C938E9312972CC09093B1
:104E9000800480937F0427C04115510519F08417C1
:104EA000950718F48D01AC01EF01DF018281938138
:104EB0009C01F9013097D1F641155105F9F0CA016D
:104EC000861B970B8430910580F48A819B810115A4
:104ED000110521F0F8019383828304C0909380042C
:104EE00080937F04FE01329645C0FE01E80FF91F52
:104EF000619371930297998388833CC080917D046C
:104F000090917E04892B41F480915301909154013A
:104F100090937E0480937D044091550150915601F9
:104F20004115510541F44DB75EB780915101909103
:104F30005201481B590B20917D0430917E042417A7
:104F40003507B0F4CA01821B930B8617970780F0D0
:104F5000AB014E5F5F4F8417950750F0420F531F10
:104F600050937E0440937D04F9016193719302C0D4
:104F7000E0E0F0E0CF01DF91CF911F910F91089514
:104F8000CF93DF939C01009709F48FC0EC01229727
:104F90001B821A8260917F047091800461157105F3
:104FA00081F488819981820F931F20917D04309133
:104FB0007E042817390739F5D0937E04C0937D0409
:104FC00074C0DB0140E050E0AC17BD0708F1BB83C3
:104FD000AA83FE0121913191E20FF31FAE17BF07A3
:104FE00079F48D919C911197280F391F2E5F3F4FB7
:104FF0003983288312968D919C9113979B838A8382
:105000004115510571F4D0938004C0937F044DC0C5
:1050100012968D919C911397AD01009711F0DC01D0
:10502000D3CFDA011396DC93CE931297FA01219134
:105030003191E20FF31FCE17DF0769F48881998160
:10504000280F391F2E5F3F4FFA01318320838A8159
:105050009B8193838283E0E0F0E0DB0112968D91E7
:105060009C911397009719F0BC01FD01F6CFAB019D
:105070004E5F5F4FDB018D919C91840F951F2091B6
:105080007D0430917E042817390779F4309729F48C
:105090001092800410927F0402C013821282425048
:1050A000504050937E0440937D04DF91CF9108954A
:1050B0006F927F928F929F92AF92BF92CF92DF9228
:1050C000EF92FF920F931F93CF93DF938C01009782
:1050D00029F4CB010E9423278C01BBC08EEFE82E60
:1050E0008FEFF82EE00EF11E4801860E971E8E14EB
:1050F0009F0408F4ACC0D7014D915C9111974617FD
:105100005707B8F04530510508F4A3C0CA01049709
:105110008617970708F49DC042505040461B570B16
:10512000F401419351936D937C93CF010E94C0276A
:1051300090C05B01A41AB50A3801640E751EA091D7
:105140007F04B0918004E0E0F0E0CC24DD2447C08F
:10515000A615B705A9F5CD91DC911197CE01029660
:105160008A159B0568F1CE018A199B090296129651
:105170002C91129713963C91059758F0F4012283D5
:105180003383CA19DB09D183C083D7016D937C9324
:1051900009C04E5F5F4F4C0F5D1FF7015183408385
:1051A000C901FC01C114D10431F0D6011396FC935E
:1051B000EE9312974EC0F0938004E0937F0449C0B1
:1051C0008D919C911197E817F90708F4FC016D0186
:1051D00012968C91129713969C919C01D90110976D
:1051E00009F0B6CF80917D0490917E0486159705D5
:1051F000E9F4E617F707D0F42091550130915601F4
:105200002115310541F42DB73EB7809151019091A0
:105210005201281B390B82169306C8F490927E0423
:1052200080927D04F7017183608313C0CB010E94DB
:105230002327EC01009759F0D7014D915C91B801FB
:105240000E944706C8010E94C0278E0102C000E0EC
:1052500010E0C801DF91CF911F910F91FF90EF9067
:10526000DF90CF90BF90AF909F908F907F906F9086
:105270000895DC015C968C915C97FD01E80FF11DAF
:10528000E35AFF4F20815C968C915C9790E00196E9
:105290008F7390705C968C935C975696ED91FC9111
:1052A000579720835096ED91FC91519780818064AF
:1052B00080835B969C915B975C968C915C9798172A
:1052C00039F45296ED91FC91539780818F7D8083C4
:1052D0000895DF92EF92FF920F931F93CF93DF9386
:1052E000EC017A018B01D22EE889F98982E0808372
:1052F000403081EE580780E0680780E07807A1F031
:1053000060E079E08DE390E0A80197010E949B3373
:10531000215030404040504056954795379527954D
:1053200080E12030380798F0E889F989108260E838
:1053300074E88EE190E0A80197010E949B33215010
:105340003040404050405695479537952795EC851D
:10535000FD853083EE85FF852083188EEC89FD89DD
:10536000D082EA89FB89808180618083EA89FB8918
:10537000808188608083EA89FB898081806880835E
:10538000EA89FB8980818F7D8083DF91CF911F9196
:105390000F91FF90EF90DF900895FC01218D828D99
:1053A00030E0205C3F4F281B31092F733070C9015A
:1053B0000895FC01918D828D981719F42FEF3FEF1E
:1053C00006C0828DE80FF11D858D282F30E0C901C0
:1053D0000895DC0159969C9159975A968C915A9749
:1053E000981719F42FEF3FEF10C05A968C915A97E7
:1053F000FD01E80FF11D958D5A968C915A978F5F9C
:105400008F735A968C93292F30E0C9010895CF935A
:10541000DF93EC01888D882361F419C08C9185FF9E
:105420000AC0E889F989808185FF05C0CE010E9404
:105430003929AA89BB898C9185FD05C0E889F9893C
:10544000808186FD04C00FB607FEE8CFF4CFDF9160
:10545000CF9108950F931F93CF93DF93EC01062F05
:105460009B8D8C8D981791F5E889F989808185FF4E
:105470002DC0EE89FF896083E889F9898081806485
:1054800080831DC00FB607FC08C0E889F9898081B8
:1054900085FF03C0CE010E9439298C8D181791F326
:1054A0008B8DFE01E80FF11DE35AFF4F00831B8F28
:1054B000EA89FB8980818062808381E0888F81E036
:1054C00090E0DF91CF911F910F9108951B8D1F5F89
:1054D0001F73E3CF82EF9AE2892B51F080E090E0D6
:1054E000892B31F00E94F22A882311F00E940000DB
:1054F00008951F920F920FB60F9211242F938F933E
:105500009F93EF93FF93E091E703F091E80380818D
:1055100082FD16C0E091ED03F091EE0320819091A1
:10552000F0039F5F9F738091F103981771F0E091F2
:10553000F003F0E0E952FC4F258F9093F00305C093
:10554000E091ED03F091EE03E081FF91EF919F91E7
:105550008F912F910F900FBE0F901F901895109262
:10556000DA031092D90388EE93E0A0E0B0E08093D4
:10557000DB039093DC03A093DD03B093DE038BE6A3
:1055800091E09093D8038093D70385EC90E09093BB
:10559000E4038093E30384EC90E09093E60380932C
:1055A000E50380EC90E09093E8038093E70381ECBF
:1055B00090E09093EA038093E90382EC90E090936B
:1055C000EC038093EB0386EC90E09093EE038093E2
:1055D000ED031092F0031092F1031092F203109277
:1055E000F303089587ED93E00E94CD2920E0892BF5
:1055F00009F021E0822F08951F920F920FB60F92AB
:1056000011242F933F934F935F936F937F938F93C7
:105610009F93AF93BF93EF93FF9387ED93E00E9427
:105620003929FF91EF91BF91AF919F918F917F9118
:105630006F915F914F913F912F910F900FBE0F90FF
:105640001F901895CF92DF92EF92FF920F931F93C6
:10565000CF93DF937C016B018A01C0E0D0E00FC0E3
:10566000D6016D916D01D701ED91FC910190F08112
:10567000E02DC7010995C80FD91F01501040011531
:10568000110571F7CE01DF91CF911F910F91FF901E
:10569000EF90DF90CF900895EF92FF920F931F93BA
:1056A000CF93DF937C018B01C0E0D0E0F8010F5F66
:1056B0001F4F6491662359F0D701ED91FC91019041
:1056C000F081E02DC7010995C80FD91FEFCFCE019A
:1056D000DF91CF911F910F91FF90EF900895CF939D
:1056E000DF93FB01EC01A881B98160817181448164
:1056F00055811296ED91FC9113970995DF91CF9109
:105700000895EF92FF920F931F938C01DC01ED91AE
:10571000FC910190F081E02D6DE009957C01D801AC
:10572000ED91FC910190F081E02DC8016AE00995AE
:105730009C012E0D3F1DC9011F910F91FF90EF900D
:105740000895EF92FF920F931F937C010E944C2BC0
:105750008C01C7010E94812B9C01200F311FC901C0
:105760001F910F91FF90EF900895EF92FF920F938A
:105770001F937C010E946F2B8C01C7010E94812B1B
:105780009C01200F311FC9011F910F91FF90EF90D5
:105790000895CF93DF93EC016115710519F420E0B2
:1057A00030E00FC0DB010D900020E9F71197A61B38
:1057B000B70BE881F9810280F381E02DAD010995F5
:1057C0009C01C901DF91CF9108954F925F927F9222
:1057D0008F929F92AF92BF92CF92DF92EF92FF9201
:1057E0000F931F93DF93CF93CDB7DEB7A1970FB67B
:1057F000F894DEBF0FBECDBF2C01742ECB0122303A
:1058000008F42AE019A231E2C32ED12CCC0EDD1E01
:10581000822E9924AA24BB24672D752FA5019401FB
:105820000E949B3379018A01C801B701A501940147
:105830000E946833472D461B0894C108D1084A309E
:1058400014F4405D01C0495CF6014083E114F104A9
:105850000105110521F07E2C5F2DC801DDCFC201AD
:10586000B6010E94C92BA1960FB6F894DEBF0FBEF9
:10587000CDBFCF91DF911F910F91FF90EF90DF90FF
:10588000CF90BF90AF909F908F907F905F904F9000
:105890000895DC012115310541F4ED91FC91019051
:1058A000F081E02D642F099508950E94E52B08955D
:1058B000EF92FF920F931F939A01E62EFF2400E0D0
:1058C00010E0B801A7010E94492C1F910F91FF9091
:1058D000EF9008952F923F924F925F926F927F9236
:1058E0008F929F92AF92BF92CF92DF92EF92FF92F0
:1058F0000F931F93DF93CF93CDB7DEB73B014C01DE
:1059000019012A016D897E898F89988D6A197B0911
:105910008C099D09621A730A840A950AA4019301ED
:105920000E946833E218F30804091509A8019701D9
:105930000E94BD332A0D3B1D4C1D5D1DB901CA01DE
:10594000CF91DF911F910F91FF90EF90DF90CF905B
:10595000BF90AF909F908F907F906F905F904F908F
:105960003F902F900895FC0180819181009729F448
:1059700060E070E080E090E002C00E94360608958A
:10598000DC01FB0114968D919C911597892B31F4C4
:1059900061157105A9F090E0808108C00D90BC915F
:1059A000A02D6115710529F490E08C91882349F4AC
:1059B00007C0CD010E9450069C0190E0232B09F402
:1059C00091E0892F08950F931F93CF93DF93EC01FC
:1059D0008B016F5F7F4F888199810E9458280097C3
:1059E00011F480E005C0998388831B830A8381E0DA
:1059F000DF91CF911F910F910895CF93DF93EC0129
:105A000088819981892B29F08A819B818617970744
:105A100060F4CE010E94E32C882341F08C819D81AB
:105A2000892B19F4E881F981108281E0DF91CF910F
:105A30000895EF92FF920F931F93CF93DF93EC01A2
:105A40007B016C817D81E114F104C1F041155105A8
:105A500099F08A01060F171FB8010E94FD2C8823B8
:105A600069F0888199812C813D81820F931FB70154
:105A70000E9459061D830C8381E001C080E0DF9104
:105A8000CF911F910F91FF90EF900895EF92FF92A9
:105A90000F931F93DF93CF93CDB7DEB764970FB605
:105AA000F894DEBF0FBECDBF7C01CB01BA0144E04C
:105AB00022E08E010F5F1F4F0E941506BC01DC0122
:105AC0000D900020E9F71197A81BB90BC701AD0194
:105AD0000E94192D64960FB6F894DEBF0FBECDBF9D
